:100000000C945C000C9479000C9479000C947900A9
:100010000C9479000C9479000C9479000C9479007C
:100020000C9479000C9479000C9479000C9479006C
:100030000C9479000C9479000C9479000C9479005C
:100040000C94D3000C9479000C9479000C947900F2
:100050000C9479000C9479000C9479000C9479003C
:100060000C9479000C947900000000002400270013
:100070002A0000000000250028002B0004040404CE
:100080000404040402020202020203030303030342
:10009000010204081020408001020408102001021F
:1000A00004081020000000080002010000030407FB
:1000B000000000000000000011241FBECFEFD8E0B8
:1000C000DEBFCDBF11E0A0E0B1E0EEEFF3E002C093
:1000D00005900D92AC38B107D9F721E0ACE8B1E05A
:1000E00001C01D92A539B207E1F70E941D010C94D1
:1000F000FD010C9400003FB7F8948091910190911C
:100100009201A0919301B091940126B5A89B05C0DE
:100110002F3F19F00196A11DB11D3FBFBA2FA92F86
:10012000982F8827BC01CD01620F711D811D911D83
:1001300042E0660F771F881F991F4A95D1F70895EF
:100140008F929F92AF92BF92CF92DF92EF92FF92E7
:100150006B017C010E947B004B015C01C114D10446
:10016000E104F104B9F00E947B00681979098A0959
:100170009B09683E73408105910580F321E0C21A16
:10018000D108E108F10888EE880E83E0981EA11CD2
:10019000B11CE4CFFF90EF90DF90CF90BF90AF9075
:1001A0009F908F9008951F920F920FB60F92112477
:1001B0002F933F938F939F93AF93BF9380918D0124
:1001C00090918E01A0918F01B091900130918C019E
:1001D00023E0230F2D3758F50196A11DB11D209363
:1001E0008C0180938D0190938E01A0938F01B09329
:1001F00090018091910190919201A0919301B09111
:1002000094010196A11DB11D8093910190939201DB
:10021000A0939301B0939401BF91AF919F918F915F
:100220003F912F910F900FBE0F901F90189526E8C9
:10023000230F0296A11DB11DD2CF789484B58260A0
:1002400084BD84B5816084BD85B5826085BD85B57A
:10025000816085BD80916E00816080936E001092F8
:100260008100809181008260809381008091810073
:100270008160809381008091800081608093800004
:100280008091B10084608093B1008091B000816062
:100290008093B00080917A00846080937A0080918E
:1002A0007A00826080937A0080917A0081608093E6
:1002B0007A0080917A00806880937A001092C10061
:1002C00022E030E0F901E057FF4F4491F901E45892
:1002D000FF4F8491882399F090E0880F991FFC01CB
:1002E000E859FF4FA591B491FC01EE58FF4F85915D
:1002F00094918FB7F894EC91E42BEC938FBF2F5F20
:100300003F4F29303105F1F60CE811E050E0E52EC1
:1003100050E0F52EC0E0D1E068EE73E080E090E0C0
:100320000E94A00090E080E0FC01EA55FF4F34916C
:10033000FC01EE56FF4F2491FC01E258FF4FE4917F
:10034000EE2309F1DC01AA0FBB1FAC0FBD1F4C91BE
:10035000332349F03330C1F168F5313009F43AC044
:10036000323009F43BC0F0E0EE0FFF1FEE58FF4FB4
:10037000A591B4913FB7F894EC9141113CC0209500
:100380002E232C933FBF01968730910509F0CCCFE7
:100390002E960C171D0709F0BFCF68EB7BE080E0BD
:1003A00090E00E94A000E114F10409F4B3CF0E9490
:1003B0000000B0CF3730A9F03830C9F0343099F6AA
:1003C000309180003F7D03C0309180003F773093B3
:1003D0008000C9CF34B53F7734BDC5CF34B53F7D3C
:1003E000FBCF3091B0003F773093B000BCCF30915D
:0E03F000B0003F7DF9CF2E2BC4CFF894FFCF85
:1003FE0001000100010001000100010000000000E9
:10040E0001000100000000000000000001000100DA
:10041E0000000100010000000100010001000100C8
:10042E0001000000000001000000010001000000BA
:10043E0000000100010001000000010001000000A9
:10044E000100010001000000010001000100010097
:10045E00010001000100010000000000000000008A
:10046E000100010001000100010001000100010076
:0C047E000100010000000000010001006E
:00000001FF
